{
  "address": "0x7F1Cbf264E60D844f60BdFb22314389cDD50F292",
  "abi": [
    {
      "inputs": [
        {
          "internalType": "address",
          "name": "_parent",
          "type": "address"
        }
      ],
      "name": "clonePosition",
      "outputs": [
        {
          "internalType": "address",
          "name": "",
          "type": "address"
        }
      ],
      "stateMutability": "nonpayable",
      "type": "function"
    },
    {
      "inputs": [
        {
          "internalType": "address",
          "name": "_owner",
          "type": "address"
        },
        {
          "internalType": "address",
          "name": "_ofd",
          "type": "address"
        },
        {
          "internalType": "address",
          "name": "_collateral",
          "type": "address"
        },
        {
          "internalType": "uint256",
          "name": "_minCollateral",
          "type": "uint256"
        },
        {
          "internalType": "uint256",
          "name": "_initialLimit",
          "type": "uint256"
        },
        {
          "internalType": "uint40",
          "name": "_initPeriod",
          "type": "uint40"
        },
        {
          "internalType": "uint40",
          "name": "_duration",
          "type": "uint40"
        },
        {
          "internalType": "uint40",
          "name": "_challengePeriod",
          "type": "uint40"
        },
        {
          "internalType": "uint24",
          "name": "_riskPremiumPPM",
          "type": "uint24"
        },
        {
          "internalType": "uint256",
          "name": "_liqPrice",
          "type": "uint256"
        },
        {
          "internalType": "uint24",
          "name": "_reserve",
          "type": "uint24"
        }
      ],
      "name": "createNewPosition",
      "outputs": [
        {
          "internalType": "address",
          "name": "",
          "type": "address"
        }
      ],
      "stateMutability": "nonpayable",
      "type": "function"
    }
  ],
  "transactionHash": "0x634e656576bd68ae355f89346c0688dbf9b755c3640e6ed2421d41399a051a3d",
  "args": [],
  "numDeployments": 1,
  "solcInputHash": "6eaf3ef7f7a823d8899d101cad9f8e1a",
  "bytecode": "0x608060405234801561001057600080fd5b506137b1806100206000396000f3fe608060405234801561001057600080fd5b50600436106100365760003560e01c80635d824f761461003b578063b3e891801461006a575b600080fd5b61004e6100493660046102fd565b61007d565b6040516001600160a01b03909116815260200160405180910390f35b61004e6100783660046103ba565b610138565b60008b338c8c8c8c8c8c8c8c8c8c604051610097906102ab565b6001600160a01b039c8d1681529a8c1660208c0152988b1660408b0152969099166060890152608088019490945260a087019290925264ffffffffff90811660c087015290811660e08601521661010084015262ffffff9384166101208401526101408301529190911661016082015261018001604051809103906000f080158015610127573d6000803e3d6000fd5b509c9b505050505050505050505050565b600080829050806001600160a01b0316630e49d77e6040518163ffffffff1660e01b8152600401600060405180830381600087803b15801561017957600080fd5b505af115801561018d573d6000803e3d6000fd5b5050505060006101fd826001600160a01b03166346c715fa6040518163ffffffff1660e01b8152600401602060405180830381865afa1580156101d4573d6000803e3d6000fd5b505050506040513d601f19601f820116820180604052508101906101f891906103de565b610205565b949350505050565b6000808260601b9050604051733d602d80600a3d3981f3363d3d373d3d3d363d7360601b81528160148201526e5af43d82803e903d91602b57fd5bf360881b60288201526037816000f09250506001600160a01b0382166102a55760405162461bcd60e51b8152602060048201526016602482015275115490cc4c4d8dce8818dc99585d194819985a5b195960521b604482015260640160405180910390fd5b50919050565b613380806103fc83390190565b6001600160a01b03811681146102cd57600080fd5b50565b803564ffffffffff811681146102e557600080fd5b919050565b803562ffffff811681146102e557600080fd5b60008060008060008060008060008060006101608c8e03121561031f57600080fd5b8b3561032a816102b8565b9a5060208c013561033a816102b8565b995060408c013561034a816102b8565b985060608c0135975060808c0135965061036660a08d016102d0565b955061037460c08d016102d0565b945061038260e08d016102d0565b93506103916101008d016102ea565b92506101208c013591506103a86101408d016102ea565b90509295989b509295989b9093969950565b6000602082840312156103cc57600080fd5b81356103d7816102b8565b9392505050565b6000602082840312156103f057600080fd5b81516103d7816102b856fe6101c06040523480156200001257600080fd5b5060405162003380380380620033808339810160408190526200003591620001fc565b620697808664ffffffffff1610156200004d57600080fd5b620000588c6200011b565b3060e0526001600160a01b038b8116610100528a81166101205289166101405262ffffff8084166101805281166101a05261016088905264ffffffffff841660a052620000a68642620002ec565b64ffffffffff1660c08190526005805464ffffffffff191682179055620000cf908690620002ec565b6005805464ffffffffff92909216650100000000000264ffffffffff60281b1990921691909117905560808790526200010982886200017f565b50505050505050505050505062000334565b6001600160a01b0381166200012f57600080fd5b600080546001600160a01b038381166001600160a01b0319831681178455604051919092169283917f8be0079c531659141344cd1fd0a4f28419497f9722a3daafe3b4186f6b6457e09190a35050565b62000193670de0b6b3a76400008262000314565b61016051620001a3908462000314565b1115620001af57600080fd5b50600155565b80516001600160a01b0381168114620001cd57600080fd5b919050565b805164ffffffffff81168114620001cd57600080fd5b805162ffffff81168114620001cd57600080fd5b6000806000806000806000806000806000806101808d8f0312156200022057600080fd5b6200022b8d620001b5565b9b506200023b60208e01620001b5565b9a506200024b60408e01620001b5565b99506200025b60608e01620001b5565b985060808d0151975060a08d015196506200027960c08e01620001d2565b95506200028960e08e01620001d2565b94506200029a6101008e01620001d2565b9350620002ab6101208e01620001e8565b92506101408d01519150620002c46101608e01620001e8565b90509295989b509295989b509295989b565b634e487b7160e01b600052601160045260246000fd5b64ffffffffff8181168382160190808211156200030d576200030d620002d6565b5092915050565b80820281158282048414176200032e576200032e620002d6565b92915050565b60805160a05160c05160e05161010051610120516101405161016051610180516101a051612e3a62000546600039600081816103c5015281816106ad0152818161070801528181610a9901528181610b9601528181610c7601528181610f3801528181610fef015281816113fe01528181611b8901528181611eb5015261266d0152600081816104cf0152611cdc01526000818161058001528181611688015281816123ea0152818161287601526129250152600081816105fe01528181611a7e015281816120e5015281816121f0015261236d0152600081816106720152818161084501528181610bc001528181610ca001528181610d2e01528181610dfb01528181610e8201528181610f5f01528181611019015281816110bb0152818161136701528181611428015281816117c501528181611b1e01528181612034015261263c0152600081816103570152818161099501528181610ad10152818161126401528181611508015281816115fb0152818161171f015281816117a10152818161187601528181611a2f01528181611cfd015261201001526000818161044001528181611188015281816111e2015281816118f40152818161228801526125d60152600081816105a7015281816107fe01528181611ded0152611e21015260008181610314015261064b015260008181610551015281816111b701528181611f780152611fb90152612e3a6000f3fe608060405234801561001057600080fd5b50600436106102535760003560e01c80636d4749fa11610146578063a4d66daf116100c3578063cfb636f011610087578063cfb636f0146105e6578063d8dfeb45146105f9578063d9caed1214610620578063f2fde38b14610633578063f3f480d914610646578063f61d52e61461066d57600080fd5b8063a4d66daf1461054c578063a8a3e31d14610573578063babe7c741461057b578063be9a6555146105a2578063c2b6b58c146105c957600080fd5b80637bd6fb9b1161010a5780637bd6fb9b146105025780638da5cb5b1461050a57806399a5d7471461051d5780639de2f79614610530578063a035b1fe1461054357600080fd5b80636d4749fa146104915780636f871cec146104a457806372bf079e146104b7578063730d48b7146104ca578063787a08a6146104f157600080fd5b8063371fd8e6116101d45780634665096d116101985780634665096d1461040d57806346c715fa1461043b57806349746f10146104625780634f02c420146104755780635be980f51461047e57600080fd5b8063371fd8e614610391578063383ef46e146103a45780633a7c29fb146103c057806340c10f19146103e757806342d02041146103fa57600080fd5b806324e657fe1161021b57806324e657fe146102f15780632a37eeae146102fa578063329864aa14610302578063350c35e91461033f578063365a86fc1461035257600080fd5b806308262940146102585780630e49d77e1461027e5780631bbea34c1461028857806320aa9e721461029b578063211d7983146102de575b600080fd5b61026b610266366004612969565b610694565b6040519081526020015b60405180910390f35b610286610733565b005b610286610296366004612999565b6107fc565b6102ae6102a9366004612a73565b610985565b604080516001600160a01b03909516855260208501939093529183015263ffffffff166060820152608001610275565b6102866102ec366004612a9f565b610ac6565b61026b60045481565b61026b61117c565b6001546040805191825264ffffffffff7f000000000000000000000000000000000000000000000000000000000000000016602083015201610275565b61028661034d366004612a73565b611262565b6103797f000000000000000000000000000000000000000000000000000000000000000081565b6040516001600160a01b039091168152602001610275565b61026b61039f366004612ad4565b61134d565b6103ac6114e9565b60405162ffffff9091168152602001610275565b6103ac7f000000000000000000000000000000000000000000000000000000000000000081565b6102866103f5366004612a73565b611506565b610286610408366004612ad4565b6115f0565b60055461042590600160281b900464ffffffffff1681565b60405164ffffffffff9091168152602001610275565b6103797f000000000000000000000000000000000000000000000000000000000000000081565b610286610470366004612ad4565b611714565b61026b60025481565b61028661048c366004612ad4565b611784565b61028661049f366004612b00565b61186b565b6102866104b2366004612b2e565b611a57565b6102866104c5366004612ad4565b611c88565b6103ac7f000000000000000000000000000000000000000000000000000000000000000081565b6005546104259064ffffffffff1681565b6103ac611cd8565b600054610379906001600160a01b031681565b6103ac61052b366004612ad4565b611de8565b61026b61053e366004612ad4565b611ea0565b61026b60015481565b61026b7f000000000000000000000000000000000000000000000000000000000000000081565b61026b611f27565b61026b7f000000000000000000000000000000000000000000000000000000000000000081565b6104257f000000000000000000000000000000000000000000000000000000000000000081565b600554600160501b900460ff166040519015158152602001610275565b6102866105f4366004612ad4565b611ff3565b6103797f000000000000000000000000000000000000000000000000000000000000000081565b61028661062e366004612b5a565b6120da565b610286610641366004612b9b565b6121c6565b6104257f000000000000000000000000000000000000000000000000000000000000000081565b6103797f000000000000000000000000000000000000000000000000000000000000000081565b600081156106ff57620f42406106a86114e9565b6106d57f0000000000000000000000000000000000000000000000000000000000000000620f4240612bce565b6106df9190612bce565b6106ee9062ffffff1685612bf1565b6106f89190612c08565b905061072d565b620f42406106df7f000000000000000000000000000000000000000000000000000000000000000082612bce565b92915050565b600454156107545760405163d26e2de960e01b815260040160405180910390fd5b60055464ffffffffff16421161077d57604051631c02820f60e21b815260040160405180910390fd5b600554600160281b900464ffffffffff1642106107cf576005546040516238ddd760e41b815264ffffffffff4281166004830152600160281b9092049190911660248201526044015b60405180910390fd5b600554600160501b900460ff16156107fa57604051631cdde67b60e01b815260040160405180910390fd5b565b7f000000000000000000000000000000000000000000000000000000000000000064ffffffffff1642106108435760405163ecdd1c2960e01b815260040160405180910390fd5b7f00000000000000000000000000000000000000000000000000000000000000006001600160a01b031663cd3293de6040518163ffffffff1660e01b8152600401602060405180830381865afa1580156108a1573d6000803e3d6000fd5b505050506040513d601f19601f820116820180604052508101906108c59190612c2a565b6001600160a01b031663352e3a833386866040518463ffffffff1660e01b81526004016108f493929190612c47565b60006040518083038186803b15801561090c57600080fd5b505afa158015610920573d6000803e3d6000fd5b5050505061093c6005805460ff60501b1916600160501b179055565b336001600160a01b03167faca80c800ec0d2aa9d9d31b7f886a1dd3067d4676abc637626a18ffb9381653d8383604051610977929190612ca3565b60405180910390a250505050565b6000808080336001600160a01b037f000000000000000000000000000000000000000000000000000000000000000016146109d3576040516313bd2e8360e31b815260040160405180910390fd5b84600460008282546109e59190612cd2565b90915550600090506109f56121d8565b905085811015610a03578095505b60008115610a29578187600254610a1a9190612bf1565b610a249190612c08565b610a2c565b60005b9050610a378161223f565b610a436203f4806122fe565b6000610a4f898961233f565b600154600254604080518481526020810193909352820152909150600080516020612de58339815191529060600160405180910390a1506000546001600160a01b031698969750957f000000000000000000000000000000000000000000000000000000000000000062ffffff1695509350505050565b336001600160a01b037f00000000000000000000000000000000000000000000000000000000000000001614610b0f576040516313bd2e8360e31b815260040160405180910390fd5b600554600160281b900464ffffffffff16421015610b40576040516302de694d60e41b815260040160405180910390fd5b60045415610b615760405163d26e2de960e01b815260040160405180910390fd5b6000610b6d848461233f565b600254909150156110a1576002546040516302dc1ca760e31b8152600481019190915262ffffff7f00000000000000000000000000000000000000000000000000000000000000001660248201526000907f00000000000000000000000000000000000000000000000000000000000000006001600160a01b0316906316e0e53890604401602060405180830381865afa158015610c0f573d6000803e3d6000fd5b505050506040513d601f19601f82011682018060405250810190610c339190612ce5565b600254909150610c438285612cfe565b10610de4576002546040516318af9f3960e11b81526001600160a01b038781166004830152602482019290925262ffffff7f00000000000000000000000000000000000000000000000000000000000000001660448201526000917f0000000000000000000000000000000000000000000000000000000000000000169063315f3e72906064016020604051808303816000875af1158015610ce9573d6000803e3d6000fd5b505050506040513d601f19601f82011682018060405250810190610d0d9190612ce5565b9050818114610d1e57610d1e612d11565b6000546002546001600160a01b037f00000000000000000000000000000000000000000000000000000000000000008116926323b872dd928a929190911690610d67868a612cfe565b610d719190612cd2565b6040518463ffffffff1660e01b8152600401610d8f93929190612d27565b6020604051808303816000875af1158015610dae573d6000803e3d6000fd5b505050506040513d601f19601f82011682018060405250810190610dd29190612d4b565b50610dde60025461223f565b5061109b565b6040516323b872dd60e01b81526001600160a01b037f000000000000000000000000000000000000000000000000000000000000000016906323b872dd90610e3490889030908890600401612d27565b6020604051808303816000875af1158015610e53573d6000803e3d6000fd5b505050506040513d601f19601f82011682018060405250810190610e779190612d4b565b5081600003610fd5577f00000000000000000000000000000000000000000000000000000000000000006001600160a01b031663d1fa5e983085600254610ebe9190612cd2565b6040516001600160e01b031960e085901b1681526001600160a01b0390921660048301526024820152604401600060405180830381600087803b158015610f0457600080fd5b505af1158015610f18573d6000803e3d6000fd5b50506002546040516363b20c3360e11b8152600481019190915262ffffff7f00000000000000000000000000000000000000000000000000000000000000001660248201527f00000000000000000000000000000000000000000000000000000000000000006001600160a01b0316925063c76418669150604401600060405180830381600087803b158015610fad57600080fd5b505af1158015610fc1573d6000803e3d6000fd5b50505050610fd060025461223f565b61109b565b60405163a47d75ad60e01b81526004810184905262ffffff7f00000000000000000000000000000000000000000000000000000000000000001660248201526000907f00000000000000000000000000000000000000000000000000000000000000006001600160a01b03169063a47d75ad906044016020604051808303816000875af115801561106a573d6000803e3d6000fd5b505050506040513d601f19601f8201168201806040525081019061108e9190612ce5565b90506110998161223f565b505b5061113a565b6000546040516323b872dd60e01b81526001600160a01b037f00000000000000000000000000000000000000000000000000000000000000008116926323b872dd926110f592899216908790600401612d27565b6020604051808303816000875af1158015611114573d6000803e3d6000fd5b505050506040513d601f19601f820116820180604052508101906111389190612d4b565b505b600080516020612de58339815191526111516121d8565b600154600254604080519384526020840192909252908201526060015b60405180910390a150505050565b60006001600160a01b037f00000000000000000000000000000000000000000000000000000000000000001630036111e0576003546111db907f0000000000000000000000000000000000000000000000000000000000000000612cd2565b905090565b7f00000000000000000000000000000000000000000000000000000000000000006001600160a01b031663a8a3e31d6040518163ffffffff1660e01b8152600401602060405180830381865afa15801561123e573d6000803e3d6000fd5b505050506040513d601f19601f820116820180604052508101906111db9190612ce5565b7f00000000000000000000000000000000000000000000000000000000000000006001600160a01b0316632f09177d6040518163ffffffff1660e01b8152600401602060405180830381865afa1580156112c0573d6000803e3d6000fd5b505050506040513d601f19601f820116820180604052508101906112e49190612c2a565b6001600160a01b0316336001600160a01b031614611305576113053361242f565b6000611311838361245d565b600154600254604080518481526020810193909352820152909150600080516020612de5833981519152906060015b60405180910390a1505050565b6040516323b872dd60e01b81526000906001600160a01b037f000000000000000000000000000000000000000000000000000000000000000016906323b872dd906113a090339030908790600401612d27565b6020604051808303816000875af11580156113bf573d6000803e3d6000fd5b505050506040513d601f19601f820116820180604052508101906113e39190612d4b565b5060405163a47d75ad60e01b81526004810183905262ffffff7f00000000000000000000000000000000000000000000000000000000000000001660248201526000907f00000000000000000000000000000000000000000000000000000000000000006001600160a01b03169063a47d75ad906044016020604051808303816000875af1158015611479573d6000803e3d6000fd5b505050506040513d601f19601f8201168201806040525081019061149d9190612ce5565b90506114a88161223f565b600080516020612de58339815191526114bf6121d8565b6001546002546040805193845260208401929092529082015260600160405180910390a192915050565b6005546000906111db90600160281b900464ffffffffff16611de8565b7f00000000000000000000000000000000000000000000000000000000000000006001600160a01b0316632f09177d6040518163ffffffff1660e01b8152600401602060405180830381865afa158015611564573d6000803e3d6000fd5b505050506040513d601f19601f820116820180604052508101906115889190612c2a565b6001600160a01b0316336001600160a01b0316146115a9576115a93361242f565b60006115b36121d8565b90506115c08383836124c4565b600154600254604080518481526020810193909352820152600080516020612de583398151915290606001611340565b336001600160a01b037f00000000000000000000000000000000000000000000000000000000000000001614611639576040516313bd2e8360e31b815260040160405180910390fd5b600554600160281b900464ffffffffff164210611686576005546040516238ddd760e41b815264ffffffffff4281166004830152600160281b9092049190911660248201526044016107c6565b7f0000000000000000000000000000000000000000000000000000000000000000811080156116bb57506116b86121d8565b81105b156116d957604051633c80636b60e21b815260040160405180910390fd5b806000036116fa57604051633c80636b60e21b815260040160405180910390fd5b806004600082825461170c9190612cfe565b909155505050565b336001600160a01b037f0000000000000000000000000000000000000000000000000000000000000000161461175d576040516313bd2e8360e31b815260040160405180910390fd5b806004600082825461176f9190612cd2565b909155506117819050620151806122fe565b50565b60405163aa5dd7f160e01b81523360048201526001600160a01b037f00000000000000000000000000000000000000000000000000000000000000008116917f00000000000000000000000000000000000000000000000000000000000000009091169063aa5dd7f190602401602060405180830381865afa15801561180e573d6000803e3d6000fd5b505050506040513d601f19601f820116820180604052508101906118329190612c2a565b6001600160a01b031614611859576040516313bd2e8360e31b815260040160405180910390fd5b806003600082825461170c9190612cd2565b336001600160a01b037f000000000000000000000000000000000000000000000000000000000000000016146118b4576040516313bd2e8360e31b815260040160405180910390fd5b600554600160281b900464ffffffffff16156118e25760405162dc149f60e41b815260040160405180910390fd5b428164ffffffffff16108061198557507f00000000000000000000000000000000000000000000000000000000000000006001600160a01b0316634665096d6040518163ffffffff1660e01b8152600401602060405180830381865afa158015611950573d6000803e3d6000fd5b505050506040513d601f19601f820116820180604052508101906119749190612d68565b64ffffffffff168164ffffffffff16115b156119a357604051637d9533a960e11b815260040160405180910390fd5b806005806101000a81548164ffffffffff021916908364ffffffffff160217905550816001600160a01b031663a035b1fe6040518163ffffffff1660e01b8152600401602060405180830381865afa158015611a03573d6000803e3d6000fd5b505050506040513d601f19601f82011682018060405250810190611a279190612ce5565b600155611a537f000000000000000000000000000000000000000000000000000000000000000061272c565b5050565b611a603361242f565b6000611a6a6121d8565b905080831115611b12576001600160a01b037f0000000000000000000000000000000000000000000000000000000000000000166323b872dd3330611aaf8588612cd2565b6040518463ffffffff1660e01b8152600401611acd93929190612d27565b6020604051808303816000875af1158015611aec573d6000803e3d6000fd5b505050506040513d601f19601f82011682018060405250810190611b109190612d4b565b505b600254841015611c0b577f00000000000000000000000000000000000000000000000000000000000000006001600160a01b031663315f3e723386600254611b5a9190612cd2565b6040516001600160e01b031960e085901b1681526001600160a01b039092166004830152602482015262ffffff7f00000000000000000000000000000000000000000000000000000000000000001660448201526064016020604051808303816000875af1158015611bd0573d6000803e3d6000fd5b505050506040513d601f19601f82011682018060405250810190611bf49190612ce5565b50611c0b84600254611c069190612cd2565b61223f565b80831015611c2857611c2633611c218584612cd2565b61245d565b505b600254841115611c4a57611c4a3360025486611c449190612cd2565b856124c4565b6001548214611c5c57611c5c8261278f565b6040805184815260208101849052908101859052600080516020612de58339815191529060600161116e565b611c913361242f565b611c9a8161278f565b600080516020612de5833981519152611cb16121d8565b6001546002546040805193845260208401929092529082015260600160405180910390a150565b60007f00000000000000000000000000000000000000000000000000000000000000007f00000000000000000000000000000000000000000000000000000000000000006001600160a01b0316632c4e722e6040518163ffffffff1660e01b8152600401602060405180830381865afa158015611d59573d6000803e3d6000fd5b505050506040513d601f19601f82011682018060405250810190611d7d9190612c2a565b6001600160a01b03166306a7b3766040518163ffffffff1660e01b8152600401602060405180830381865afa158015611dba573d6000803e3d6000fd5b505050506040513d601f19601f82011682018060405250810190611dde9190612d85565b6111db9190612daa565b6000807f000000000000000000000000000000000000000000000000000000000000000064ffffffffff164210611e1f5742611e48565b7f000000000000000000000000000000000000000000000000000000000000000064ffffffffff165b90506000611e568285612cd2565b905060006301e13380611e67611cd8565b611e769062ffffff1684612bf1565b611e809190612c08565b9050620f42408111611e925780611e97565b620f42405b95945050505050565b60008115611f1f57611eb06114e9565b611edd7f0000000000000000000000000000000000000000000000000000000000000000620f4240612bce565b611ee79190612bce565b62ffffff166001611efb84620f4240612bf1565b611f059190612cd2565b611f0f9190612c08565b611f1a906001612cfe565b61072d565b600092915050565b600080670de0b6b3a7640000600154611f3e6121d8565b611f489190612bf1565b611f529190612c08565b905060008160025411611f7157600254611f6c9083612cd2565b611f74565b60005b90507f000000000000000000000000000000000000000000000000000000000000000081600354611fa59190612cfe565b10611fb35760009250505090565b806003547f0000000000000000000000000000000000000000000000000000000000000000611fe29190612cd2565b611fec9190612cd2565b9250505090565b60405163aa5dd7f160e01b81523360048201526001600160a01b037f00000000000000000000000000000000000000000000000000000000000000008116917f00000000000000000000000000000000000000000000000000000000000000009091169063aa5dd7f190602401602060405180830381865afa15801561207d573d6000803e3d6000fd5b505050506040513d601f19601f820116820180604052508101906120a19190612c2a565b6001600160a01b0316146120c8576040516313bd2e8360e31b815260040160405180910390fd5b806003600082825461170c9190612cfe565b6120e33361242f565b7f00000000000000000000000000000000000000000000000000000000000000006001600160a01b0316836001600160a01b03160361212b576121268282611262565b505050565b60006121356121d8565b60405163a9059cbb60e01b81526001600160a01b038581166004830152602482018590529192509085169063a9059cbb906044016020604051808303816000875af1158015612188573d6000803e3d6000fd5b505050506040513d601f19601f820116820180604052508101906121ac9190612d4b565b506121b56121d8565b81146121c057600080fd5b50505050565b6121cf3361242f565b6117818161272c565b6040516370a0823160e01b81523060048201526000907f00000000000000000000000000000000000000000000000000000000000000006001600160a01b0316906370a0823190602401602060405180830381865afa15801561123e573d6000803e3d6000fd5b600254811115612272576002546122569082612cd2565b604051635795d46960e11b81526004016107c691815260200190565b604051635be980f560e01b8152600481018290527f00000000000000000000000000000000000000000000000000000000000000006001600160a01b031690635be980f590602401600060405180830381600087803b1580156122d457600080fd5b505af11580156122e8573d6000803e3d6000fd5b50505050806002600082825461170c9190612cd2565b600061230a8242612dc6565b60055490915064ffffffffff9081169082161115611a53576005805464ffffffffff831664ffffffffff199091161790555050565b600081156123dc5760405163a9059cbb60e01b81526001600160a01b038481166004830152602482018490527f0000000000000000000000000000000000000000000000000000000000000000169063a9059cbb906044016020604051808303816000875af11580156123b6573d6000803e3d6000fd5b505050506040513d601f19601f820116820180604052508101906123da9190612d4b565b505b60006123e66121d8565b90507f0000000000000000000000000000000000000000000000000000000000000000811015612428576124286005805460ff60501b1916600160501b179055565b9392505050565b6000546001600160a01b03828116911614611781576040516330cd747160e01b815260040160405180910390fd5b600454600090156124815760405163d26e2de960e01b815260040160405180910390fd5b60055464ffffffffff1642116124aa57604051631c02820f60e21b815260040160405180910390fd5b60006124b6848461233f565b905061242881600154612872565b600454156124e55760405163d26e2de960e01b815260040160405180910390fd5b60055464ffffffffff16421161250e57604051631c02820f60e21b815260040160405180910390fd5b600554600160281b900464ffffffffff16421061255b576005546040516238ddd760e41b815264ffffffffff4281166004830152600160281b9092049190911660248201526044016107c6565b600554600160501b900460ff161561258657604051631cdde67b60e01b815260040160405180910390fd5b61258e61117c565b8211156125c0578161259e61117c565b604051634779077960e11b8152600481019290925260248201526044016107c6565b604051630cfb636f60e41b8152600481018390527f00000000000000000000000000000000000000000000000000000000000000006001600160a01b03169063cfb636f090602401600060405180830381600087803b15801561262257600080fd5b505af1158015612636573d6000803e3d6000fd5b505050507f00000000000000000000000000000000000000000000000000000000000000006001600160a01b0316638112eb2b84847f00000000000000000000000000000000000000000000000000000000000000006126946114e9565b6040516001600160e01b031960e087901b1681526001600160a01b039094166004850152602484019290925262ffffff9081166044840152166064820152608401600060405180830381600087803b1580156126ef57600080fd5b505af1158015612703573d6000803e3d6000fd5b5050505081600260008282546127199190612cfe565b9250508190555061212681600154612872565b6001600160a01b03811661273f57600080fd5b600080546001600160a01b038381166001600160a01b0319831681178455604051919092169283917f8be0079c531659141344cd1fd0a4f28419497f9722a3daafe3b4186f6b6457e09190a35050565b600454156127b05760405163d26e2de960e01b815260040160405180910390fd5b600554600160281b900464ffffffffff1642106127fd576005546040516238ddd760e41b815264ffffffffff4281166004830152600160281b9092049190911660248201526044016107c6565b600554600160501b900460ff161561282857604051631cdde67b60e01b815260040160405180910390fd5b6001548111156128435761283e6203f4806122fe565b612854565b61285461284e6121d8565b82612872565b6117818161286061117c565b60025461286d9190612cfe565b61290e565b60007f000000000000000000000000000000000000000000000000000000000000000083106128a157826128a4565b60005b9050670de0b6b3a76400006002546128bc9190612bf1565b6128c68383612bf1565b1015612126576128d68282612bf1565b670de0b6b3a76400006002546128ec9190612bf1565b604051632c1f8ef160e21b8152600481019290925260248201526044016107c6565b612920670de0b6b3a764000082612bf1565b61294a7f000000000000000000000000000000000000000000000000000000000000000084612bf1565b111561295557600080fd5b50600155565b801515811461178157600080fd5b6000806040838503121561297c57600080fd5b82359150602083013561298e8161295b565b809150509250929050565b600080600080604085870312156129af57600080fd5b843567ffffffffffffffff808211156129c757600080fd5b818701915087601f8301126129db57600080fd5b8135818111156129ea57600080fd5b8860208260051b85010111156129ff57600080fd5b602092830196509450908601359080821115612a1a57600080fd5b818701915087601f830112612a2e57600080fd5b813581811115612a3d57600080fd5b886020828501011115612a4f57600080fd5b95989497505060200194505050565b6001600160a01b038116811461178157600080fd5b60008060408385031215612a8657600080fd5b8235612a9181612a5e565b946020939093013593505050565b600080600060608486031215612ab457600080fd5b8335612abf81612a5e565b95602085013595506040909401359392505050565b600060208284031215612ae657600080fd5b5035919050565b64ffffffffff8116811461178157600080fd5b60008060408385031215612b1357600080fd5b8235612b1e81612a5e565b9150602083013561298e81612aed565b600080600060608486031215612b4357600080fd5b505081359360208301359350604090920135919050565b600080600060608486031215612b6f57600080fd5b8335612b7a81612a5e565b92506020840135612b8a81612a5e565b929592945050506040919091013590565b600060208284031215612bad57600080fd5b813561242881612a5e565b634e487b7160e01b600052601160045260246000fd5b62ffffff828116828216039080821115612bea57612bea612bb8565b5092915050565b808202811582820484141761072d5761072d612bb8565b600082612c2557634e487b7160e01b600052601260045260246000fd5b500490565b600060208284031215612c3c57600080fd5b815161242881612a5e565b6001600160a01b03848116825260406020808401829052908301849052600091859160608501845b87811015612c96578435612c8281612a5e565b841682529382019390820190600101612c6f565b5098975050505050505050565b60208152816020820152818360408301376000818301604090810191909152601f909201601f19160101919050565b8181038181111561072d5761072d612bb8565b600060208284031215612cf757600080fd5b5051919050565b8082018082111561072d5761072d612bb8565b634e487b7160e01b600052600160045260246000fd5b6001600160a01b039384168152919092166020820152604081019190915260600190565b600060208284031215612d5d57600080fd5b81516124288161295b565b600060208284031215612d7a57600080fd5b815161242881612aed565b600060208284031215612d9757600080fd5b815162ffffff8116811461242857600080fd5b62ffffff818116838216019080821115612bea57612bea612bb8565b64ffffffffff818116838216019080821115612bea57612bea612bb856fe9483a26ad376f30b5199a79e75df3bb05158c4ee32a348f53e83245a5e50c86ea264697066735822122049e979782c4ed2e538dbcd3aebebb382a84636359d9cc262195a8f1d74ffaafe64736f6c63430008140033a26469706673582212201bde40b2ac24683e48f37d3dbaddc050651d30f4fab3e35f44a04c77722f863764736f6c63430008140033",
  "devdoc": {
    "kind": "dev",
    "methods": {
      "clonePosition(address)": {
        "params": {
          "_parent": "address of the position we want to clone"
        },
        "returns": {
          "_0": "address of the newly created clone position"
        }
      }
    },
    "version": 1
  },
  "userdoc": {
    "kind": "user",
    "methods": {
      "clonePosition(address)": {
        "notice": "clone an existing position. This can be a clone of another clone, or an original position."
      },
      "createNewPosition(address,address,address,uint256,uint256,uint40,uint40,uint40,uint24,uint256,uint24)": {
        "notice": "Create a completely new position in a newly deployed contract. Must be called through minting hub to be recognized as valid position."
      }
    },
    "version": 1
  },
  "storageLayout": {
    "storage": [],
    "types": null
  }
}