{
  "address": "0xd5183DD54aBE2dc040213516d19c5532405762D6",
  "abi": [
    {
      "inputs": [
        {
          "internalType": "contract IOracleFreeDollar",
          "name": "ofd_",
          "type": "address"
        },
        {
          "internalType": "uint24",
          "name": "initialRatePPM",
          "type": "uint24"
        }
      ],
      "stateMutability": "nonpayable",
      "type": "constructor"
    },
    {
      "inputs": [],
      "name": "ChangeNotReady",
      "type": "error"
    },
    {
      "inputs": [
        {
          "internalType": "uint40",
          "name": "remainingSeconds",
          "type": "uint40"
        }
      ],
      "name": "FundsLocked",
      "type": "error"
    },
    {
      "inputs": [],
      "name": "ModuleDisabled",
      "type": "error"
    },
    {
      "inputs": [],
      "name": "NoPendingChange",
      "type": "error"
    },
    {
      "anonymous": false,
      "inputs": [
        {
          "indexed": true,
          "internalType": "address",
          "name": "account",
          "type": "address"
        },
        {
          "indexed": false,
          "internalType": "uint256",
          "name": "interest",
          "type": "uint256"
        }
      ],
      "name": "InterestCollected",
      "type": "event"
    },
    {
      "anonymous": false,
      "inputs": [
        {
          "indexed": false,
          "internalType": "uint24",
          "name": "newRate",
          "type": "uint24"
        }
      ],
      "name": "RateChanged",
      "type": "event"
    },
    {
      "anonymous": false,
      "inputs": [
        {
          "indexed": false,
          "internalType": "address",
          "name": "who",
          "type": "address"
        },
        {
          "indexed": false,
          "internalType": "uint24",
          "name": "nextRate",
          "type": "uint24"
        },
        {
          "indexed": false,
          "internalType": "uint40",
          "name": "nextChange",
          "type": "uint40"
        }
      ],
      "name": "RateProposed",
      "type": "event"
    },
    {
      "anonymous": false,
      "inputs": [
        {
          "indexed": true,
          "internalType": "address",
          "name": "account",
          "type": "address"
        },
        {
          "indexed": false,
          "internalType": "uint192",
          "name": "amount",
          "type": "uint192"
        }
      ],
      "name": "Saved",
      "type": "event"
    },
    {
      "anonymous": false,
      "inputs": [
        {
          "indexed": true,
          "internalType": "address",
          "name": "account",
          "type": "address"
        },
        {
          "indexed": false,
          "internalType": "uint192",
          "name": "amount",
          "type": "uint192"
        }
      ],
      "name": "Withdrawn",
      "type": "event"
    },
    {
      "inputs": [],
      "name": "INTEREST_DELAY",
      "outputs": [
        {
          "internalType": "uint64",
          "name": "",
          "type": "uint64"
        }
      ],
      "stateMutability": "view",
      "type": "function"
    },
    {
      "inputs": [
        {
          "internalType": "address",
          "name": "accountOwner",
          "type": "address"
        }
      ],
      "name": "accruedInterest",
      "outputs": [
        {
          "internalType": "uint192",
          "name": "",
          "type": "uint192"
        }
      ],
      "stateMutability": "view",
      "type": "function"
    },
    {
      "inputs": [
        {
          "internalType": "address",
          "name": "accountOwner",
          "type": "address"
        },
        {
          "internalType": "uint256",
          "name": "timestamp",
          "type": "uint256"
        }
      ],
      "name": "accruedInterest",
      "outputs": [
        {
          "internalType": "uint192",
          "name": "",
          "type": "uint192"
        }
      ],
      "stateMutability": "view",
      "type": "function"
    },
    {
      "inputs": [
        {
          "internalType": "uint192",
          "name": "targetAmount",
          "type": "uint192"
        }
      ],
      "name": "adjust",
      "outputs": [],
      "stateMutability": "nonpayable",
      "type": "function"
    },
    {
      "inputs": [],
      "name": "applyChange",
      "outputs": [],
      "stateMutability": "nonpayable",
      "type": "function"
    },
    {
      "inputs": [
        {
          "components": [
            {
              "internalType": "uint192",
              "name": "saved",
              "type": "uint192"
            },
            {
              "internalType": "uint64",
              "name": "ticks",
              "type": "uint64"
            }
          ],
          "internalType": "struct Savings.Account",
          "name": "account",
          "type": "tuple"
        },
        {
          "internalType": "uint64",
          "name": "ticks",
          "type": "uint64"
        }
      ],
      "name": "calculateInterest",
      "outputs": [
        {
          "internalType": "uint192",
          "name": "",
          "type": "uint192"
        }
      ],
      "stateMutability": "view",
      "type": "function"
    },
    {
      "inputs": [],
      "name": "currentRatePPM",
      "outputs": [
        {
          "internalType": "uint24",
          "name": "",
          "type": "uint24"
        }
      ],
      "stateMutability": "view",
      "type": "function"
    },
    {
      "inputs": [],
      "name": "currentTicks",
      "outputs": [
        {
          "internalType": "uint64",
          "name": "",
          "type": "uint64"
        }
      ],
      "stateMutability": "view",
      "type": "function"
    },
    {
      "inputs": [],
      "name": "equity",
      "outputs": [
        {
          "internalType": "contract IReserve",
          "name": "",
          "type": "address"
        }
      ],
      "stateMutability": "view",
      "type": "function"
    },
    {
      "inputs": [],
      "name": "nextChange",
      "outputs": [
        {
          "internalType": "uint40",
          "name": "",
          "type": "uint40"
        }
      ],
      "stateMutability": "view",
      "type": "function"
    },
    {
      "inputs": [],
      "name": "nextRatePPM",
      "outputs": [
        {
          "internalType": "uint24",
          "name": "",
          "type": "uint24"
        }
      ],
      "stateMutability": "view",
      "type": "function"
    },
    {
      "inputs": [],
      "name": "ofd",
      "outputs": [
        {
          "internalType": "contract IERC20",
          "name": "",
          "type": "address"
        }
      ],
      "stateMutability": "view",
      "type": "function"
    },
    {
      "inputs": [
        {
          "internalType": "uint24",
          "name": "newRatePPM_",
          "type": "uint24"
        },
        {
          "internalType": "address[]",
          "name": "helpers",
          "type": "address[]"
        }
      ],
      "name": "proposeChange",
      "outputs": [],
      "stateMutability": "nonpayable",
      "type": "function"
    },
    {
      "inputs": [
        {
          "internalType": "address",
          "name": "owner",
          "type": "address"
        }
      ],
      "name": "refreshBalance",
      "outputs": [
        {
          "internalType": "uint192",
          "name": "",
          "type": "uint192"
        }
      ],
      "stateMutability": "nonpayable",
      "type": "function"
    },
    {
      "inputs": [],
      "name": "refreshMyBalance",
      "outputs": [
        {
          "internalType": "uint192",
          "name": "",
          "type": "uint192"
        }
      ],
      "stateMutability": "nonpayable",
      "type": "function"
    },
    {
      "inputs": [
        {
          "internalType": "address",
          "name": "owner",
          "type": "address"
        },
        {
          "internalType": "uint192",
          "name": "amount",
          "type": "uint192"
        }
      ],
      "name": "save",
      "outputs": [],
      "stateMutability": "nonpayable",
      "type": "function"
    },
    {
      "inputs": [
        {
          "internalType": "uint192",
          "name": "amount",
          "type": "uint192"
        }
      ],
      "name": "save",
      "outputs": [],
      "stateMutability": "nonpayable",
      "type": "function"
    },
    {
      "inputs": [
        {
          "internalType": "address",
          "name": "",
          "type": "address"
        }
      ],
      "name": "savings",
      "outputs": [
        {
          "internalType": "uint192",
          "name": "saved",
          "type": "uint192"
        },
        {
          "internalType": "uint64",
          "name": "ticks",
          "type": "uint64"
        }
      ],
      "stateMutability": "view",
      "type": "function"
    },
    {
      "inputs": [
        {
          "internalType": "uint256",
          "name": "timestamp",
          "type": "uint256"
        }
      ],
      "name": "ticks",
      "outputs": [
        {
          "internalType": "uint64",
          "name": "",
          "type": "uint64"
        }
      ],
      "stateMutability": "view",
      "type": "function"
    },
    {
      "inputs": [
        {
          "internalType": "address",
          "name": "target",
          "type": "address"
        },
        {
          "internalType": "uint192",
          "name": "amount",
          "type": "uint192"
        }
      ],
      "name": "withdraw",
      "outputs": [
        {
          "internalType": "uint256",
          "name": "",
          "type": "uint256"
        }
      ],
      "stateMutability": "nonpayable",
      "type": "function"
    }
  ],
  "transactionHash": "0x03281bc81c7a50cb227bfb25e77ef54b19fcf9128a9f88588a2216818464a3e7",
  "args": [
    "0xa79bD079986b7D8C9D98021817dCf7085741D991",
    50000
  ],
  "numDeployments": 1,
  "solcInputHash": "6eaf3ef7f7a823d8899d101cad9f8e1a",
  "bytecode": "0x60e06040526203f48060a0523480156200001857600080fd5b5060405162001660380380620016608339810160408190526200003b9162000191565b816001600160a01b031663cd3293de6040518163ffffffff1660e01b8152600401602060405180830381865afa1580156200007a573d6000803e3d6000fd5b505050506040513d601f19601f82011682018060405250810190620000a09190620001d7565b6001600160a01b03811660805260008054600160801b600160c01b03196b010000000000000000000000660100000000000064ffffffffff42811682026affffffffff000000ffffff1962ffffff8a1663010000008102919091166001600160581b031990971696909617861717918204169190910291909116600160581b600160c01b0319919091161790915560405190815282907fd76dfbd4c35cffe2a846b6488bc677c511aa4337e1551f3a360427ac7a78de7b9060200160405180910390a15050506001600160a01b031660c052620001fe565b6001600160a01b03811681146200018e57600080fd5b50565b60008060408385031215620001a557600080fd5b8251620001b28162000178565b602084015190925062ffffff81168114620001cc57600080fd5b809150509250929050565b600060208284031215620001ea57600080fd5b8151620001f78162000178565b9392505050565b60805160a05160c0516114016200025f6000396000818161036d015281816104da0152818161091601528181610ba60152610e8701526000818161020c01528181610b160152610c770152600081816102ac01526105b001526114016000f3fe608060405234801561001057600080fd5b506004361061012c5760003560e01c806385bd12d1116100ad578063b77cd1c711610071578063b77cd1c71461032f578063bdc6515214610342578063c198361014610355578063f61d52e614610368578063fd449c141461038f57600080fd5b806385bd12d11461029f57806391a0ac6a146102a7578063a696399d146102e6578063b079f163146102f9578063b6f83c171461030157600080fd5b80634df61d82116100f45780634df61d82146102075780634e65037e14610246578063534cb30d1461024e57806377267ec3146102615780637915ce201461028c57600080fd5b806306a7b376146101315780631791dc5e146101595780631de252e41461017a5780631f7cdd5f1461018f5780632e4b20ab146101f1575b600080fd5b6000546101409062ffffff1681565b60405162ffffff90911681526020015b60405180910390f35b61016c610167366004610fd7565b6103a2565b604051908152602001610150565b61018d61018836600461100a565b610599565b005b6101ca61019d366004611099565b6001602052600090815260409020546001600160c01b03811690600160c01b90046001600160401b031682565b604080516001600160c01b0390931683526001600160401b03909116602083015201610150565b600054610140906301000000900462ffffff1681565b61022e7f000000000000000000000000000000000000000000000000000000000000000081565b6040516001600160401b039091168152602001610150565b61018d6106c1565b61022e61025c3660046110bb565b61082b565b61027461026f366004611099565b610875565b6040516001600160c01b039091168152602001610150565b61027461029a3660046110eb565b610881565b6102746109c2565b6102ce7f000000000000000000000000000000000000000000000000000000000000000081565b6040516001600160a01b039091168152602001610150565b6102746102f436600461116b565b6109d2565b61022e610a2e565b60005461031990600160301b900464ffffffffff1681565b60405164ffffffffff9091168152602001610150565b61027461033d366004611099565b610a39565b61018d610350366004611195565b610a54565b61018d610363366004610fd7565b610aca565b6102ce7f000000000000000000000000000000000000000000000000000000000000000081565b61018d61039d366004611195565b610dca565b6000806103ae33610dd7565b90506103b8610a2e565b81546001600160401b03918216600160c01b90910490911611156104335760005462ffffff166103e6610a2e565b82546104029190600160c01b90046001600160401b03166111c6565b61040c91906111fc565b604051630ad679f360e41b815264ffffffffff909116600482015260240160405180910390fd5b80546001600160c01b039081169084161061046a578054336000908152600160205260408120556001600160c01b031692506104ac565b8054839082906000906104879084906001600160c01b0316611220565b92506101000a8154816001600160c01b0302191690836001600160c01b031602179055505b60405163a9059cbb60e01b81526001600160a01b0385811660048301526001600160c01b03851660248301527f0000000000000000000000000000000000000000000000000000000000000000169063a9059cbb906044016020604051808303816000875af1158015610523573d6000803e3d6000fd5b505050506040513d601f19601f820116820180604052508101906105479190611240565b506040516001600160c01b038416815233907f47cf194f5e559cca0413017d38814a7843cc6f3052bc43c8085938774ae581519060200160405180910390a250506001600160c01b0381165b92915050565b60405163352e3a8360e01b81526001600160a01b037f0000000000000000000000000000000000000000000000000000000000000000169063352e3a83906105e990339086908690600401611262565b60006040518083038186803b15801561060157600080fd5b505afa158015610615573d6000803e3d6000fd5b50506000805465ffffff0000001916630100000062ffffff8816021790555061064390504262093a806112bc565b600080546affffffffff0000000000001916600160301b64ffffffffff93841681029190911791829055604080513381526301000000840462ffffff16602082015291909204909216908201527e4964f2e48bd8a460fb41883098593956d335f36fdded4ca9cbac9252d72b2f9060600160405180910390a1505050565b60005462ffffff6301000000820481169116036106f15760405163147fde5f60e31b815260040160405180910390fd5b600054429064ffffffffff600160301b90910481169082161015610728576040516301b3782160e21b815260040160405180910390fd5b60005462ffffff81169061074a90600160581b900464ffffffffff16836112cf565b61075491906112ed565b64ffffffffff16600060108282829054906101000a90046001600160401b031661077e919061130e565b82546101009290920a6001600160401b038181021990931691909216919091021790555060008054630100000064ffffffffff60581b198216600160581b64ffffffffff8616029081179190910462ffffff166fffffffffff0000000000000000ffffff1990921662ffffff19919091161781179091556040519081527fd76dfbd4c35cffe2a846b6488bc677c511aa4337e1551f3a360427ac7a78de7b9060200160405180910390a150565b6000805462ffffff81169061084e90600160581b900464ffffffffff16846111c6565b610858919061132e565b6000546105939190600160801b90046001600160401b031661130e565b600061059382426109d2565b600082602001516001600160401b0316826001600160401b03161115806108b3575060208301516001600160401b0316155b156108c057506000610593565b60006301e13380620f424085600001516001600160c01b03168660200151866108e991906111c6565b6001600160401b03166108fc9190611351565b6109069190611368565b6109109190611368565b905060007f00000000000000000000000000000000000000000000000000000000000000006001600160a01b03166391a0ac6a6040518163ffffffff1660e01b8152600401602060405180830381865afa158015610972573d6000803e3d6000fd5b505050506040513d601f19601f82011682018060405250810190610996919061137c565b905080826001600160c01b031611156109b25791506105939050565b509050610593565b505092915050565b60006109cd33610a39565b905090565b6001600160a01b03821660009081526001602090815260408083208151808301909252546001600160c01b0381168252600160c01b90046001600160401b031691810191909152610a268161029a8561082b565b949350505050565b60006109cd4261082b565b6000610a4482610dd7565b546001600160c01b031692915050565b6000610a5f33610dd7565b80549091506001600160c01b0380841691161015610a94578054610a909061039d906001600160c01b031684611220565b5050565b80546001600160c01b0380841691161115610a90578054610ac59033906101679085906001600160c01b0316611220565b505050565b6000805462ffffff169003610af257604051630dbfe5fd60e31b815260040160405180910390fd5b6000546301000000900462ffffff16158015610b505750610b3c6001600160401b037f000000000000000000000000000000000000000000000000000000000000000016426112bc565b600054600160301b900464ffffffffff1611155b15610b6e57604051630dbfe5fd60e31b815260040160405180910390fd5b6000610b7983610dd7565b6040516323b872dd60e01b81523360048201523060248201526001600160c01b03841660448201529091507f00000000000000000000000000000000000000000000000000000000000000006001600160a01b0316906323b872dd906064016020604051808303816000875af1158015610bf7573d6000803e3d6000fd5b505050506040513d601f19601f82011682018060405250810190610c1b9190611240565b506000610c26610a2e565b82549091506001600160401b03808316600160c01b909204161015610c4d57610c4d611395565b81546001600160c01b0390811690600090610c6a908616836112bc565b6000546001600160401b037f00000000000000000000000000000000000000000000000000000000000000001690610cb09062ffffff166001600160c01b038916611351565b610cba9190611351565b8554610cd7908690600160c01b90046001600160401b03166111c6565b610cea906001600160401b031685611351565b610cf491906112bc565b610cfe9190611368565b845490915085908590600090610d1e9084906001600160c01b03166113ab565b92506101000a8154816001600160c01b0302191690836001600160c01b031602179055508083610d4e919061130e565b84546001600160401b0391909116600160c01b026001600160c01b039091161784556040516001600160a01b038716907ff195ce54b48d5147da31c1fc525c8828b8836088b505a329e5de2b35da6731e290610dba9088906001600160c01b0391909116815260200190565b60405180910390a2505050505050565b610dd43382610aca565b50565b6001600160a01b038116600090815260016020526040812081610df8610a2e565b82549091506001600160401b03600160c01b90910481169082161115610f9d576040805180820190915282546001600160c01b0381168252600160c01b90046001600160401b03166020820152600090610e529083610881565b90506001600160c01b03811615610f7d57604051631a3f4bd360e31b81523060048201526001600160c01b03821660248201527f00000000000000000000000000000000000000000000000000000000000000006001600160a01b03169063d1fa5e9890604401600060405180830381600087803b158015610ed357600080fd5b505af1158015610ee7573d6000803e3d6000fd5b50508454839250859150600090610f089084906001600160c01b03166113ab565b92506101000a8154816001600160c01b0302191690836001600160c01b03160217905550846001600160a01b03167fed3bc1b58411ea8e764b3ef8fa6b654877bc1e796a5a1a2373dfc8f1c0e0ea4882604051610f7491906001600160c01b0391909116815260200190565b60405180910390a25b5081546001600160c01b0316600160c01b6001600160401b038316021782555b5092915050565b80356001600160a01b0381168114610fbb57600080fd5b919050565b80356001600160c01b0381168114610fbb57600080fd5b60008060408385031215610fea57600080fd5b610ff383610fa4565b915061100160208401610fc0565b90509250929050565b60008060006040848603121561101f57600080fd5b833562ffffff8116811461103257600080fd5b925060208401356001600160401b038082111561104e57600080fd5b818601915086601f83011261106257600080fd5b81358181111561107157600080fd5b8760208260051b850101111561108657600080fd5b6020830194508093505050509250925092565b6000602082840312156110ab57600080fd5b6110b482610fa4565b9392505050565b6000602082840312156110cd57600080fd5b5035919050565b80356001600160401b0381168114610fbb57600080fd5b60008082840360608112156110ff57600080fd5b604081121561110d57600080fd5b50604051604081018181106001600160401b038211171561113e57634e487b7160e01b600052604160045260246000fd5b60405261114a84610fc0565b8152611158602085016110d4565b60208201529150611001604084016110d4565b6000806040838503121561117e57600080fd5b61118783610fa4565b946020939093013593505050565b6000602082840312156111a757600080fd5b6110b482610fc0565b634e487b7160e01b600052601160045260246000fd5b6001600160401b03828116828216039080821115610f9d57610f9d6111b0565b634e487b7160e01b600052601260045260246000fd5b600064ffffffffff80841680611214576112146111e6565b92169190910492915050565b6001600160c01b03828116828216039080821115610f9d57610f9d6111b0565b60006020828403121561125257600080fd5b815180151581146110b457600080fd5b6001600160a01b03848116825260406020808401829052908301849052600091859160608501845b878110156112af578361129c86610fa4565b168252938201939082019060010161128a565b5098975050505050505050565b80820180821115610593576105936111b0565b64ffffffffff828116828216039080821115610f9d57610f9d6111b0565b64ffffffffff8181168382160280821691908281146109ba576109ba6111b0565b6001600160401b03818116838216019080821115610f9d57610f9d6111b0565b6001600160401b038181168382160280821691908281146109ba576109ba6111b0565b8082028115828204841417610593576105936111b0565b600082611377576113776111e6565b500490565b60006020828403121561138e57600080fd5b5051919050565b634e487b7160e01b600052600160045260246000fd5b6001600160c01b03818116838216019080821115610f9d57610f9d6111b056fea26469706673582212202da81d4194320323c1e1a9d19f840305fcd631c4baf7e9e47bb2c37ab3c45c4f64736f6c63430008140033",
  "devdoc": {
    "kind": "dev",
    "methods": {},
    "title": "Savings Module to enable savings based on a Leadrate (\"Leitzins\") module. As the interest rate changes, the speed at which 'ticks' are accumulated is adjusted. The ticks counter serves as the basis for calculating the interest due for the individual accounts. The saved OFD are subject to a lockup of up to 3 days and only start to yield an interest after the lockup ended. The purpose of this lockup is to discourage short-term holdings and to avoid paying interest to transactional accounts. Transactional accounts typically do not need an incentive to hold OracleFreeDollars.",
    "version": 1
  },
  "userdoc": {
    "kind": "user",
    "methods": {
      "applyChange()": {
        "notice": "Setting a previously proposed interest rate change into force."
      },
      "currentTicks()": {
        "notice": "Total accumulated 'interest ticks' since this contract was deployed. One 'tick' is a ppm-second, so one months of 12% annual interest is   120000*30*24*3600 = 311040000000 ticks. Two months of 6% annual interest would result in the same number of ticks. For simplicity, this is linear, so there is no \"interest on interest\"."
      },
      "proposeChange(uint24,address[])": {
        "notice": "Proposes a new interest rate that will automatically be applied after seven days. To cancel a proposal, just overwrite it with a new one proposing the current rate."
      },
      "refreshBalance(address)": {
        "notice": "Collects the accrued interest and adds it to the account. It can be beneficial to do so every now and then in order to start collecting interest on the accrued interest."
      },
      "refreshMyBalance()": {
        "notice": "Shortcut for refreshBalance(msg.sender)"
      },
      "save(address,uint192)": {
        "notice": "Send 'amount' to the account of the provided owner. The funds sent to the account are locked for a while, depending on how much already is in there."
      },
      "save(uint192)": {
        "notice": "Save 'amount'."
      },
      "withdraw(address,uint192)": {
        "notice": "Withdraw up to 'amount' to the target address. When trying to withdraw more than available, all that is available is withdrawn. Returns the acutally transferred amount. Fails if the funds in the account have not been in the account for long enough."
      }
    },
    "version": 1
  },
  "storageLayout": {
    "storage": [
      {
        "astId": 1144,
        "contract": "contracts/Savings.sol:Savings",
        "label": "currentRatePPM",
        "offset": 0,
        "slot": "0",
        "type": "t_uint24"
      },
      {
        "astId": 1146,
        "contract": "contracts/Savings.sol:Savings",
        "label": "nextRatePPM",
        "offset": 3,
        "slot": "0",
        "type": "t_uint24"
      },
      {
        "astId": 1148,
        "contract": "contracts/Savings.sol:Savings",
        "label": "nextChange",
        "offset": 6,
        "slot": "0",
        "type": "t_uint40"
      },
      {
        "astId": 1150,
        "contract": "contracts/Savings.sol:Savings",
        "label": "anchorTime",
        "offset": 11,
        "slot": "0",
        "type": "t_uint40"
      },
      {
        "astId": 1152,
        "contract": "contracts/Savings.sol:Savings",
        "label": "ticksAnchor",
        "offset": 16,
        "slot": "0",
        "type": "t_uint64"
      },
      {
        "astId": 5787,
        "contract": "contracts/Savings.sol:Savings",
        "label": "savings",
        "offset": 0,
        "slot": "1",
        "type": "t_mapping(t_address,t_struct(Account)5792_storage)"
      }
    ],
    "types": {
      "t_address": {
        "encoding": "inplace",
        "label": "address",
        "numberOfBytes": "20"
      },
      "t_mapping(t_address,t_struct(Account)5792_storage)": {
        "encoding": "mapping",
        "key": "t_address",
        "label": "mapping(address => struct Savings.Account)",
        "numberOfBytes": "32",
        "value": "t_struct(Account)5792_storage"
      },
      "t_struct(Account)5792_storage": {
        "encoding": "inplace",
        "label": "struct Savings.Account",
        "members": [
          {
            "astId": 5789,
            "contract": "contracts/Savings.sol:Savings",
            "label": "saved",
            "offset": 0,
            "slot": "0",
            "type": "t_uint192"
          },
          {
            "astId": 5791,
            "contract": "contracts/Savings.sol:Savings",
            "label": "ticks",
            "offset": 24,
            "slot": "0",
            "type": "t_uint64"
          }
        ],
        "numberOfBytes": "32"
      },
      "t_uint192": {
        "encoding": "inplace",
        "label": "uint192",
        "numberOfBytes": "24"
      },
      "t_uint24": {
        "encoding": "inplace",
        "label": "uint24",
        "numberOfBytes": "3"
      },
      "t_uint40": {
        "encoding": "inplace",
        "label": "uint40",
        "numberOfBytes": "5"
      },
      "t_uint64": {
        "encoding": "inplace",
        "label": "uint64",
        "numberOfBytes": "8"
      }
    }
  }
}